{
  "_format": "hh-sol-artifact-1",
  "contractName": "FanboyPass",
  "sourceName": "contracts/FanboyPass.sol",
  "abi": [
    {
      "inputs": [],
      "stateMutability": "nonpayable",
      "type": "constructor"
    },
    {
      "anonymous": false,
      "inputs": [
        {
          "indexed": true,
          "internalType": "address",
          "name": "owner",
          "type": "address"
        },
        {
          "indexed": true,
          "internalType": "address",
          "name": "approved",
          "type": "address"
        },
        {
          "indexed": true,
          "internalType": "uint256",
          "name": "tokenId",
          "type": "uint256"
        }
      ],
      "name": "Approval",
      "type": "event"
    },
    {
      "anonymous": false,
      "inputs": [
        {
          "indexed": true,
          "internalType": "address",
          "name": "owner",
          "type": "address"
        },
        {
          "indexed": true,
          "internalType": "address",
          "name": "operator",
          "type": "address"
        },
        {
          "indexed": false,
          "internalType": "bool",
          "name": "approved",
          "type": "bool"
        }
      ],
      "name": "ApprovalForAll",
      "type": "event"
    },
    {
      "anonymous": false,
      "inputs": [
        {
          "indexed": true,
          "internalType": "address",
          "name": "previousOwner",
          "type": "address"
        },
        {
          "indexed": true,
          "internalType": "address",
          "name": "newOwner",
          "type": "address"
        }
      ],
      "name": "OwnershipTransferred",
      "type": "event"
    },
    {
      "anonymous": false,
      "inputs": [
        {
          "indexed": true,
          "internalType": "address",
          "name": "from",
          "type": "address"
        },
        {
          "indexed": true,
          "internalType": "address",
          "name": "to",
          "type": "address"
        },
        {
          "indexed": true,
          "internalType": "uint256",
          "name": "tokenId",
          "type": "uint256"
        }
      ],
      "name": "Transfer",
      "type": "event"
    },
    {
      "inputs": [
        {
          "internalType": "address",
          "name": "to",
          "type": "address"
        },
        {
          "internalType": "uint256",
          "name": "tokenId",
          "type": "uint256"
        }
      ],
      "name": "approve",
      "outputs": [],
      "stateMutability": "nonpayable",
      "type": "function"
    },
    {
      "inputs": [
        {
          "internalType": "address",
          "name": "owner",
          "type": "address"
        }
      ],
      "name": "balanceOf",
      "outputs": [
        {
          "internalType": "uint256",
          "name": "",
          "type": "uint256"
        }
      ],
      "stateMutability": "view",
      "type": "function"
    },
    {
      "inputs": [
        {
          "internalType": "uint256",
          "name": "_id",
          "type": "uint256"
        }
      ],
      "name": "generateCardURI",
      "outputs": [
        {
          "internalType": "string",
          "name": "",
          "type": "string"
        }
      ],
      "stateMutability": "view",
      "type": "function"
    },
    {
      "inputs": [
        {
          "internalType": "uint256",
          "name": "tokenId",
          "type": "uint256"
        }
      ],
      "name": "getApproved",
      "outputs": [
        {
          "internalType": "address",
          "name": "",
          "type": "address"
        }
      ],
      "stateMutability": "view",
      "type": "function"
    },
    {
      "inputs": [
        {
          "internalType": "address",
          "name": "owner",
          "type": "address"
        },
        {
          "internalType": "address",
          "name": "operator",
          "type": "address"
        }
      ],
      "name": "isApprovedForAll",
      "outputs": [
        {
          "internalType": "bool",
          "name": "",
          "type": "bool"
        }
      ],
      "stateMutability": "view",
      "type": "function"
    },
    {
      "inputs": [],
      "name": "mint",
      "outputs": [],
      "stateMutability": "nonpayable",
      "type": "function"
    },
    {
      "inputs": [],
      "name": "name",
      "outputs": [
        {
          "internalType": "string",
          "name": "",
          "type": "string"
        }
      ],
      "stateMutability": "view",
      "type": "function"
    },
    {
      "inputs": [],
      "name": "owner",
      "outputs": [
        {
          "internalType": "address",
          "name": "",
          "type": "address"
        }
      ],
      "stateMutability": "view",
      "type": "function"
    },
    {
      "inputs": [
        {
          "internalType": "uint256",
          "name": "tokenId",
          "type": "uint256"
        }
      ],
      "name": "ownerOf",
      "outputs": [
        {
          "internalType": "address",
          "name": "",
          "type": "address"
        }
      ],
      "stateMutability": "view",
      "type": "function"
    },
    {
      "inputs": [],
      "name": "renounceOwnership",
      "outputs": [],
      "stateMutability": "nonpayable",
      "type": "function"
    },
    {
      "inputs": [
        {
          "internalType": "address",
          "name": "from",
          "type": "address"
        },
        {
          "internalType": "address",
          "name": "to",
          "type": "address"
        },
        {
          "internalType": "uint256",
          "name": "tokenId",
          "type": "uint256"
        }
      ],
      "name": "safeTransferFrom",
      "outputs": [],
      "stateMutability": "nonpayable",
      "type": "function"
    },
    {
      "inputs": [
        {
          "internalType": "address",
          "name": "from",
          "type": "address"
        },
        {
          "internalType": "address",
          "name": "to",
          "type": "address"
        },
        {
          "internalType": "uint256",
          "name": "tokenId",
          "type": "uint256"
        },
        {
          "internalType": "bytes",
          "name": "data",
          "type": "bytes"
        }
      ],
      "name": "safeTransferFrom",
      "outputs": [],
      "stateMutability": "nonpayable",
      "type": "function"
    },
    {
      "inputs": [
        {
          "internalType": "address",
          "name": "operator",
          "type": "address"
        },
        {
          "internalType": "bool",
          "name": "approved",
          "type": "bool"
        }
      ],
      "name": "setApprovalForAll",
      "outputs": [],
      "stateMutability": "nonpayable",
      "type": "function"
    },
    {
      "inputs": [
        {
          "internalType": "bytes4",
          "name": "interfaceId",
          "type": "bytes4"
        }
      ],
      "name": "supportsInterface",
      "outputs": [
        {
          "internalType": "bool",
          "name": "",
          "type": "bool"
        }
      ],
      "stateMutability": "view",
      "type": "function"
    },
    {
      "inputs": [],
      "name": "symbol",
      "outputs": [
        {
          "internalType": "string",
          "name": "",
          "type": "string"
        }
      ],
      "stateMutability": "view",
      "type": "function"
    },
    {
      "inputs": [
        {
          "internalType": "uint256",
          "name": "tokenId",
          "type": "uint256"
        }
      ],
      "name": "tokenURI",
      "outputs": [
        {
          "internalType": "string",
          "name": "",
          "type": "string"
        }
      ],
      "stateMutability": "view",
      "type": "function"
    },
    {
      "inputs": [],
      "name": "totalMint",
      "outputs": [
        {
          "internalType": "uint256",
          "name": "",
          "type": "uint256"
        }
      ],
      "stateMutability": "view",
      "type": "function"
    },
    {
      "inputs": [],
      "name": "totalSupply",
      "outputs": [
        {
          "internalType": "uint256",
          "name": "",
          "type": "uint256"
        }
      ],
      "stateMutability": "view",
      "type": "function"
    },
    {
      "inputs": [
        {
          "internalType": "address",
          "name": "from",
          "type": "address"
        },
        {
          "internalType": "address",
          "name": "to",
          "type": "address"
        },
        {
          "internalType": "uint256",
          "name": "tokenId",
          "type": "uint256"
        }
      ],
      "name": "transferFrom",
      "outputs": [],
      "stateMutability": "nonpayable",
      "type": "function"
    },
    {
      "inputs": [
        {
          "internalType": "address",
          "name": "newOwner",
          "type": "address"
        }
      ],
      "name": "transferOwnership",
      "outputs": [],
      "stateMutability": "nonpayable",
      "type": "function"
    },
    {
      "inputs": [
        {
          "internalType": "string",
          "name": "_newURI",
          "type": "string"
        }
      ],
      "name": "updateTokenURI",
      "outputs": [],
      "stateMutability": "nonpayable",
      "type": "function"
    },
    {
      "inputs": [
        {
          "internalType": "uint256",
          "name": "_newSupply",
          "type": "uint256"
        }
      ],
      "name": "updateTotalMint",
      "outputs": [],
      "stateMutability": "nonpayable",
      "type": "function"
    }
  ],
  "bytecode": "0x608060405260fa600955604051806080016040528060578152602001620037b260579139600a90805190602001906200003a929190620001dd565b503480156200004857600080fd5b506040518060400160405280601a81526020017f536b656c65746f6e2053746570682046616e626f7920506173730000000000008152506040518060400160405280600481526020017f53534650000000000000000000000000000000000000000000000000000000008152508160009080519060200190620000cd929190620001dd565b508060019080519060200190620000e6929190620001dd565b50505062000109620000fd6200010f60201b60201c565b6200011760201b60201c565b620002f2565b600033905090565b6000600760009054906101000a900473ffffffffffffffffffffffffffffffffffffffff16905081600760006101000a81548173ffffffffffffffffffffffffffffffffffffffff021916908373ffffffffffffffffffffffffffffffffffffffff1602179055508173ffffffffffffffffffffffffffffffffffffffff168173ffffffffffffffffffffffffffffffffffffffff167f8be0079c531659141344cd1fd0a4f28419497f9722a3daafe3b4186f6b6457e060405160405180910390a35050565b828054620001eb906200028d565b90600052602060002090601f0160209004810192826200020f57600085556200025b565b82601f106200022a57805160ff19168380011785556200025b565b828001600101855582156200025b579182015b828111156200025a5782518255916020019190600101906200023d565b5b5090506200026a91906200026e565b5090565b5b80821115620002895760008160009055506001016200026f565b5090565b60006002820490506001821680620002a657607f821691505b60208210811415620002bd57620002bc620002c3565b5b50919050565b7f4e487b7100000000000000000000000000000000000000000000000000000000600052602260045260246000fd5b6134b080620003026000396000f3fe608060405234801561001057600080fd5b50600436106101425760003560e01c806370a08231116100b857806398cd61531161007c57806398cd615314610351578063a22cb4651461036d578063b88d4fde14610389578063c87b56dd146103a5578063e985e9c5146103d5578063f2fde38b1461040557610142565b806370a08231146102ab578063715018a6146102db5780637cb6e9d7146102e55780638da5cb5b1461031557806395d89b411461033357610142565b806318160ddd1161010a57806318160ddd146101eb57806323b872dd146102095780633d6969a71461022557806342842e0e1461024157806359a7715a1461025d5780636352211e1461027b57610142565b806301ffc9a71461014757806306fdde0314610177578063081812fc14610195578063095ea7b3146101c55780631249c58b146101e1575b600080fd5b610161600480360381019061015c9190611fb6565b610421565b60405161016e919061268b565b60405180910390f35b61017f610503565b60405161018c91906126a6565b60405180910390f35b6101af60048036038101906101aa9190612059565b610595565b6040516101bc9190612624565b60405180910390f35b6101df60048036038101906101da9190611f76565b6105db565b005b6101e96106f3565b005b6101f3610766565b60405161020091906128c8565b60405180910390f35b610223600480360381019061021e9190611e60565b610777565b005b61023f600480360381019061023a9190612059565b6107d7565b005b61025b60048036038101906102569190611e60565b610834565b005b610265610854565b60405161027291906128c8565b60405180910390f35b61029560048036038101906102909190612059565b61085a565b6040516102a29190612624565b60405180910390f35b6102c560048036038101906102c09190611df3565b61090c565b6040516102d291906128c8565b60405180910390f35b6102e36109c4565b005b6102ff60048036038101906102fa9190612059565b6109d8565b60405161030c91906126a6565b60405180910390f35b61031d610a3f565b60405161032a9190612624565b60405180910390f35b61033b610a69565b60405161034891906126a6565b60405180910390f35b61036b60048036038101906103669190612010565b610afb565b005b61038760048036038101906103829190611f36565b610b1d565b005b6103a3600480360381019061039e9190611eb3565b610b33565b005b6103bf60048036038101906103ba9190612059565b610b95565b6040516103cc91906126a6565b60405180910390f35b6103ef60048036038101906103ea9190611e20565b610bef565b6040516103fc919061268b565b60405180910390f35b61041f600480360381019061041a9190611df3565b610c83565b005b60007f80ac58cd000000000000000000000000000000000000000000000000000000007bffffffffffffffffffffffffffffffffffffffffffffffffffffffff1916827bffffffffffffffffffffffffffffffffffffffffffffffffffffffff191614806104ec57507f5b5e139f000000000000000000000000000000000000000000000000000000007bffffffffffffffffffffffffffffffffffffffffffffffffffffffff1916827bffffffffffffffffffffffffffffffffffffffffffffffffffffffff1916145b806104fc57506104fb82610d07565b5b9050919050565b60606000805461051290612b8d565b80601f016020809104026020016040519081016040528092919081815260200182805461053e90612b8d565b801561058b5780601f106105605761010080835404028352916020019161058b565b820191906000526020600020905b81548152906001019060200180831161056e57829003601f168201915b5050505050905090565b60006105a082610d71565b6004600083815260200190815260200160002060009054906101000a900473ffffffffffffffffffffffffffffffffffffffff169050919050565b60006105e68261085a565b90508073ffffffffffffffffffffffffffffffffffffffff168373ffffffffffffffffffffffffffffffffffffffff161415610657576040517f08c379a000000000000000000000000000000000000000000000000000000000815260040161064e90612848565b60405180910390fd5b8073ffffffffffffffffffffffffffffffffffffffff16610676610dbc565b73ffffffffffffffffffffffffffffffffffffffff1614806106a557506106a48161069f610dbc565b610bef565b5b6106e4576040517f08c379a00000000000000000000000000000000000000000000000000000000081526004016106db906127a8565b60405180910390fd5b6106ee8383610dc4565b505050565b6009546107006008610e7d565b1115610741576040517f08c379a000000000000000000000000000000000000000000000000000000000815260040161073890612868565b60405180910390fd5b600061074d6008610e7d565b90506107593382610e8b565b6107636008610ea9565b50565b60006107726008610e7d565b905090565b610788610782610dbc565b82610ebf565b6107c7576040517f08c379a00000000000000000000000000000000000000000000000000000000081526004016107be90612888565b60405180910390fd5b6107d2838383610f54565b505050565b6107df6111bb565b6107e96008610e7d565b811161082a576040517f08c379a000000000000000000000000000000000000000000000000000000000815260040161082190612808565b60405180910390fd5b8060098190555050565b61084f83838360405180602001604052806000815250610b33565b505050565b60095481565b6000806002600084815260200190815260200160002060009054906101000a900473ffffffffffffffffffffffffffffffffffffffff169050600073ffffffffffffffffffffffffffffffffffffffff168173ffffffffffffffffffffffffffffffffffffffff161415610903576040517f08c379a00000000000000000000000000000000000000000000000000000000081526004016108fa90612828565b60405180910390fd5b80915050919050565b60008073ffffffffffffffffffffffffffffffffffffffff168273ffffffffffffffffffffffffffffffffffffffff16141561097d576040517f08c379a000000000000000000000000000000000000000000000000000000000815260040161097490612788565b60405180910390fd5b600360008373ffffffffffffffffffffffffffffffffffffffff1673ffffffffffffffffffffffffffffffffffffffff168152602001908152602001600020549050919050565b6109cc6111bb565b6109d66000611239565b565b6060610a196109e6836112ff565b6109f16009546112ff565b600a604051602001610a0593929190612563565b604051602081830303815290604052611460565b604051602001610a299190612602565b6040516020818303038152906040529050919050565b6000600760009054906101000a900473ffffffffffffffffffffffffffffffffffffffff16905090565b606060018054610a7890612b8d565b80601f0160208091040260200160405190810160405280929190818152602001828054610aa490612b8d565b8015610af15780601f10610ac657610100808354040283529160200191610af1565b820191906000526020600020905b815481529060010190602001808311610ad457829003601f168201915b5050505050905090565b610b036111bb565b80600a9080519060200190610b19929190611c07565b5050565b610b2f610b28610dbc565b83836115d9565b5050565b610b44610b3e610dbc565b83610ebf565b610b83576040517f08c379a0000000000000000000000000000000000000000000000000000000008152600401610b7a90612888565b60405180910390fd5b610b8f84848484611746565b50505050565b6060610ba0826117a2565b610bdf576040517f08c379a0000000000000000000000000000000000000000000000000000000008152600401610bd6906128a8565b60405180910390fd5b610be8826109d8565b9050919050565b6000600560008473ffffffffffffffffffffffffffffffffffffffff1673ffffffffffffffffffffffffffffffffffffffff16815260200190815260200160002060008373ffffffffffffffffffffffffffffffffffffffff1673ffffffffffffffffffffffffffffffffffffffff16815260200190815260200160002060009054906101000a900460ff16905092915050565b610c8b6111bb565b600073ffffffffffffffffffffffffffffffffffffffff168173ffffffffffffffffffffffffffffffffffffffff161415610cfb576040517f08c379a0000000000000000000000000000000000000000000000000000000008152600401610cf2906126e8565b60405180910390fd5b610d0481611239565b50565b60007f01ffc9a7000000000000000000000000000000000000000000000000000000007bffffffffffffffffffffffffffffffffffffffffffffffffffffffff1916827bffffffffffffffffffffffffffffffffffffffffffffffffffffffff1916149050919050565b610d7a816117a2565b610db9576040517f08c379a0000000000000000000000000000000000000000000000000000000008152600401610db090612828565b60405180910390fd5b50565b600033905090565b816004600083815260200190815260200160002060006101000a81548173ffffffffffffffffffffffffffffffffffffffff021916908373ffffffffffffffffffffffffffffffffffffffff160217905550808273ffffffffffffffffffffffffffffffffffffffff16610e378361085a565b73ffffffffffffffffffffffffffffffffffffffff167f8c5be1e5ebec7d5bd14f71427d1e84f3dd0314c0f7b2291e5b200ac8c7c3b92560405160405180910390a45050565b600081600001549050919050565b610ea582826040518060200160405280600081525061180e565b5050565b6001816000016000828254019250508190555050565b600080610ecb8361085a565b90508073ffffffffffffffffffffffffffffffffffffffff168473ffffffffffffffffffffffffffffffffffffffff161480610f0d5750610f0c8185610bef565b5b80610f4b57508373ffffffffffffffffffffffffffffffffffffffff16610f3384610595565b73ffffffffffffffffffffffffffffffffffffffff16145b91505092915050565b8273ffffffffffffffffffffffffffffffffffffffff16610f748261085a565b73ffffffffffffffffffffffffffffffffffffffff1614610fca576040517f08c379a0000000000000000000000000000000000000000000000000000000008152600401610fc190612708565b60405180910390fd5b600073ffffffffffffffffffffffffffffffffffffffff168273ffffffffffffffffffffffffffffffffffffffff16141561103a576040517f08c379a000000000000000000000000000000000000000000000000000000000815260040161103190612748565b60405180910390fd5b611045838383611869565b611050600082610dc4565b6001600360008573ffffffffffffffffffffffffffffffffffffffff1673ffffffffffffffffffffffffffffffffffffffff16815260200190815260200160002060008282546110a09190612aa3565b925050819055506001600360008473ffffffffffffffffffffffffffffffffffffffff1673ffffffffffffffffffffffffffffffffffffffff16815260200190815260200160002060008282546110f791906129c2565b92505081905550816002600083815260200190815260200160002060006101000a81548173ffffffffffffffffffffffffffffffffffffffff021916908373ffffffffffffffffffffffffffffffffffffffff160217905550808273ffffffffffffffffffffffffffffffffffffffff168473ffffffffffffffffffffffffffffffffffffffff167fddf252ad1be2c89b69c2b068fc378daa952ba7f163c4a11628f55a4df523b3ef60405160405180910390a46111b683838361186e565b505050565b6111c3610dbc565b73ffffffffffffffffffffffffffffffffffffffff166111e1610a3f565b73ffffffffffffffffffffffffffffffffffffffff1614611237576040517f08c379a000000000000000000000000000000000000000000000000000000000815260040161122e906127e8565b60405180910390fd5b565b6000600760009054906101000a900473ffffffffffffffffffffffffffffffffffffffff16905081600760006101000a81548173ffffffffffffffffffffffffffffffffffffffff021916908373ffffffffffffffffffffffffffffffffffffffff1602179055508173ffffffffffffffffffffffffffffffffffffffff168173ffffffffffffffffffffffffffffffffffffffff167f8be0079c531659141344cd1fd0a4f28419497f9722a3daafe3b4186f6b6457e060405160405180910390a35050565b60606000821415611347576040518060400160405280600181526020017f3000000000000000000000000000000000000000000000000000000000000000815250905061145b565b600082905060005b6000821461137957808061136290612bf0565b915050600a826113729190612a18565b915061134f565b60008167ffffffffffffffff81111561139557611394612d26565b5b6040519080825280601f01601f1916602001820160405280156113c75781602001600182028036833780820191505090505b5090505b60008514611454576001826113e09190612aa3565b9150600a856113ef9190612c39565b60306113fb91906129c2565b60f81b81838151811061141157611410612cf7565b5b60200101907effffffffffffffffffffffffffffffffffffffffffffffffffffffffffffff1916908160001a905350600a8561144d9190612a18565b94506113cb565b8093505050505b919050565b6060600082511415611483576040518060200160405280600081525090506115d4565b600060405180606001604052806040815260200161343b60409139905060006003600285516114b291906129c2565b6114bc9190612a18565b60046114c89190612a49565b905060006020826114d991906129c2565b67ffffffffffffffff8111156114f2576114f1612d26565b5b6040519080825280601f01601f1916602001820160405280156115245781602001600182028036833780820191505090505b509050818152600183018586518101602084015b81831015611593576003830192508251603f8160121c168501518253600182019150603f81600c1c168501518253600182019150603f8160061c168501518253600182019150603f8116850151825360018201915050611538565b6003895106600181146115ad57600281146115bd576115c8565b613d3d60f01b60028303526115c8565b603d60f81b60018303525b50505050508093505050505b919050565b8173ffffffffffffffffffffffffffffffffffffffff168373ffffffffffffffffffffffffffffffffffffffff161415611648576040517f08c379a000000000000000000000000000000000000000000000000000000000815260040161163f90612768565b60405180910390fd5b80600560008573ffffffffffffffffffffffffffffffffffffffff1673ffffffffffffffffffffffffffffffffffffffff16815260200190815260200160002060008473ffffffffffffffffffffffffffffffffffffffff1673ffffffffffffffffffffffffffffffffffffffff16815260200190815260200160002060006101000a81548160ff0219169083151502179055508173ffffffffffffffffffffffffffffffffffffffff168373ffffffffffffffffffffffffffffffffffffffff167f17307eab39ab6107e8899845ad3d59bd9653f200f220920489ca2b5937696c3183604051611739919061268b565b60405180910390a3505050565b611751848484610f54565b61175d84848484611873565b61179c576040517f08c379a0000000000000000000000000000000000000000000000000000000008152600401611793906126c8565b60405180910390fd5b50505050565b60008073ffffffffffffffffffffffffffffffffffffffff166002600084815260200190815260200160002060009054906101000a900473ffffffffffffffffffffffffffffffffffffffff1673ffffffffffffffffffffffffffffffffffffffff1614159050919050565b6118188383611a0a565b6118256000848484611873565b611864576040517f08c379a000000000000000000000000000000000000000000000000000000000815260040161185b906126c8565b60405180910390fd5b505050565b505050565b505050565b60006118948473ffffffffffffffffffffffffffffffffffffffff16611be4565b156119fd578373ffffffffffffffffffffffffffffffffffffffff1663150b7a026118bd610dbc565b8786866040518563ffffffff1660e01b81526004016118df949392919061263f565b602060405180830381600087803b1580156118f957600080fd5b505af192505050801561192a57506040513d601f19601f820116820180604052508101906119279190611fe3565b60015b6119ad573d806000811461195a576040519150601f19603f3d011682016040523d82523d6000602084013e61195f565b606091505b506000815114156119a5576040517f08c379a000000000000000000000000000000000000000000000000000000000815260040161199c906126c8565b60405180910390fd5b805181602001fd5b63150b7a0260e01b7bffffffffffffffffffffffffffffffffffffffffffffffffffffffff1916817bffffffffffffffffffffffffffffffffffffffffffffffffffffffff191614915050611a02565b600190505b949350505050565b600073ffffffffffffffffffffffffffffffffffffffff168273ffffffffffffffffffffffffffffffffffffffff161415611a7a576040517f08c379a0000000000000000000000000000000000000000000000000000000008152600401611a71906127c8565b60405180910390fd5b611a83816117a2565b15611ac3576040517f08c379a0000000000000000000000000000000000000000000000000000000008152600401611aba90612728565b60405180910390fd5b611acf60008383611869565b6001600360008473ffffffffffffffffffffffffffffffffffffffff1673ffffffffffffffffffffffffffffffffffffffff1681526020019081526020016000206000828254611b1f91906129c2565b92505081905550816002600083815260200190815260200160002060006101000a81548173ffffffffffffffffffffffffffffffffffffffff021916908373ffffffffffffffffffffffffffffffffffffffff160217905550808273ffffffffffffffffffffffffffffffffffffffff16600073ffffffffffffffffffffffffffffffffffffffff167fddf252ad1be2c89b69c2b068fc378daa952ba7f163c4a11628f55a4df523b3ef60405160405180910390a4611be06000838361186e565b5050565b6000808273ffffffffffffffffffffffffffffffffffffffff163b119050919050565b828054611c1390612b8d565b90600052602060002090601f016020900481019282611c355760008555611c7c565b82601f10611c4e57805160ff1916838001178555611c7c565b82800160010185558215611c7c579182015b82811115611c7b578251825591602001919060010190611c60565b5b509050611c899190611c8d565b5090565b5b80821115611ca6576000816000905550600101611c8e565b5090565b6000611cbd611cb884612908565b6128e3565b905082815260208101848484011115611cd957611cd8612d5a565b5b611ce4848285612b4b565b509392505050565b6000611cff611cfa84612939565b6128e3565b905082815260208101848484011115611d1b57611d1a612d5a565b5b611d26848285612b4b565b509392505050565b600081359050611d3d816133de565b92915050565b600081359050611d52816133f5565b92915050565b600081359050611d678161340c565b92915050565b600081519050611d7c8161340c565b92915050565b600082601f830112611d9757611d96612d55565b5b8135611da7848260208601611caa565b91505092915050565b600082601f830112611dc557611dc4612d55565b5b8135611dd5848260208601611cec565b91505092915050565b600081359050611ded81613423565b92915050565b600060208284031215611e0957611e08612d64565b5b6000611e1784828501611d2e565b91505092915050565b60008060408385031215611e3757611e36612d64565b5b6000611e4585828601611d2e565b9250506020611e5685828601611d2e565b9150509250929050565b600080600060608486031215611e7957611e78612d64565b5b6000611e8786828701611d2e565b9350506020611e9886828701611d2e565b9250506040611ea986828701611dde565b9150509250925092565b60008060008060808587031215611ecd57611ecc612d64565b5b6000611edb87828801611d2e565b9450506020611eec87828801611d2e565b9350506040611efd87828801611dde565b925050606085013567ffffffffffffffff811115611f1e57611f1d612d5f565b5b611f2a87828801611d82565b91505092959194509250565b60008060408385031215611f4d57611f4c612d64565b5b6000611f5b85828601611d2e565b9250506020611f6c85828601611d43565b9150509250929050565b60008060408385031215611f8d57611f8c612d64565b5b6000611f9b85828601611d2e565b9250506020611fac85828601611dde565b9150509250929050565b600060208284031215611fcc57611fcb612d64565b5b6000611fda84828501611d58565b91505092915050565b600060208284031215611ff957611ff8612d64565b5b600061200784828501611d6d565b91505092915050565b60006020828403121561202657612025612d64565b5b600082013567ffffffffffffffff81111561204457612043612d5f565b5b61205084828501611db0565b91505092915050565b60006020828403121561206f5761206e612d64565b5b600061207d84828501611dde565b91505092915050565b61208f81612ad7565b82525050565b61209e81612ae9565b82525050565b60006120af8261297f565b6120b98185612995565b93506120c9818560208601612b5a565b6120d281612d69565b840191505092915050565b60006120e88261298a565b6120f281856129a6565b9350612102818560208601612b5a565b61210b81612d69565b840191505092915050565b60006121218261298a565b61212b81856129b7565b935061213b818560208601612b5a565b80840191505092915050565b6000815461215481612b8d565b61215e81866129b7565b94506001821660008114612179576001811461218a576121bd565b60ff198316865281860193506121bd565b6121938561296a565b60005b838110156121b557815481890152600182019150602081019050612196565b838801955050505b50505092915050565b60006121d36027836129b7565b91506121de82612d7a565b602782019050919050565b60006121f66032836129a6565b915061220182612dc9565b604082019050919050565b60006122196026836129a6565b915061222482612e18565b604082019050919050565b600061223c6025836129a6565b915061224782612e67565b604082019050919050565b600061225f601c836129a6565b915061226a82612eb6565b602082019050919050565b60006122826024836129a6565b915061228d82612edf565b604082019050919050565b60006122a56019836129a6565b91506122b082612f2e565b602082019050919050565b60006122c86029836129a6565b91506122d382612f57565b604082019050919050565b60006122eb6009836129b7565b91506122f682612fa6565b600982019050919050565b600061230e6002836129b7565b915061231982612fcf565b600282019050919050565b6000612331603e836129a6565b915061233c82612ff8565b604082019050919050565b60006123546020836129a6565b915061235f82613047565b602082019050919050565b60006123776002836129b7565b915061238282613070565b600282019050919050565b600061239a6020836129a6565b91506123a582613099565b602082019050919050565b60006123bd6001836129b7565b91506123c8826130c2565b600182019050919050565b60006123e06023836129a6565b91506123eb826130eb565b604082019050919050565b60006124036018836129a6565b915061240e8261313a565b602082019050919050565b60006124266021836129a6565b915061243182613163565b604082019050919050565b6000612449601d836129b7565b9150612454826131b2565b601d82019050919050565b600061246c6027836129b7565b9150612477826131db565b602782019050919050565b600061248f607b836129b7565b915061249a8261322a565b607b82019050919050565b60006124b2600e836129b7565b91506124bd826132c5565b600e82019050919050565b60006124d5601b836129a6565b91506124e0826132ee565b602082019050919050565b60006124f8602e836129a6565b915061250382613317565b604082019050919050565b600061251b602f836129a6565b915061252682613366565b604082019050919050565b600061253e6001836129b7565b9150612549826133b5565b600182019050919050565b61255d81612b41565b82525050565b600061256e826121c6565b915061257982612482565b9150612584826124a5565b915061258f826123b0565b915061259a8261245f565b91506125a68286612116565b91506125b182612531565b91506125bd8285612116565b91506125c882612301565b91506125d38261236a565b91506125de826122de565b91506125ea8284612147565b91506125f582612301565b9150819050949350505050565b600061260d8261243c565b91506126198284612116565b915081905092915050565b60006020820190506126396000830184612086565b92915050565b60006080820190506126546000830187612086565b6126616020830186612086565b61266e6040830185612554565b818103606083015261268081846120a4565b905095945050505050565b60006020820190506126a06000830184612095565b92915050565b600060208201905081810360008301526126c081846120dd565b905092915050565b600060208201905081810360008301526126e1816121e9565b9050919050565b600060208201905081810360008301526127018161220c565b9050919050565b600060208201905081810360008301526127218161222f565b9050919050565b6000602082019050818103600083015261274181612252565b9050919050565b6000602082019050818103600083015261276181612275565b9050919050565b6000602082019050818103600083015261278181612298565b9050919050565b600060208201905081810360008301526127a1816122bb565b9050919050565b600060208201905081810360008301526127c181612324565b9050919050565b600060208201905081810360008301526127e181612347565b9050919050565b600060208201905081810360008301526128018161238d565b9050919050565b60006020820190508181036000830152612821816123d3565b9050919050565b60006020820190508181036000830152612841816123f6565b9050919050565b6000602082019050818103600083015261286181612419565b9050919050565b60006020820190508181036000830152612881816124c8565b9050919050565b600060208201905081810360008301526128a1816124eb565b9050919050565b600060208201905081810360008301526128c18161250e565b9050919050565b60006020820190506128dd6000830184612554565b92915050565b60006128ed6128fe565b90506128f98282612bbf565b919050565b6000604051905090565b600067ffffffffffffffff82111561292357612922612d26565b5b61292c82612d69565b9050602081019050919050565b600067ffffffffffffffff82111561295457612953612d26565b5b61295d82612d69565b9050602081019050919050565b60008190508160005260206000209050919050565b600081519050919050565b600081519050919050565b600082825260208201905092915050565b600082825260208201905092915050565b600081905092915050565b60006129cd82612b41565b91506129d883612b41565b9250827fffffffffffffffffffffffffffffffffffffffffffffffffffffffffffffffff03821115612a0d57612a0c612c6a565b5b828201905092915050565b6000612a2382612b41565b9150612a2e83612b41565b925082612a3e57612a3d612c99565b5b828204905092915050565b6000612a5482612b41565b9150612a5f83612b41565b9250817fffffffffffffffffffffffffffffffffffffffffffffffffffffffffffffffff0483118215151615612a9857612a97612c6a565b5b828202905092915050565b6000612aae82612b41565b9150612ab983612b41565b925082821015612acc57612acb612c6a565b5b828203905092915050565b6000612ae282612b21565b9050919050565b60008115159050919050565b60007fffffffff0000000000000000000000000000000000000000000000000000000082169050919050565b600073ffffffffffffffffffffffffffffffffffffffff82169050919050565b6000819050919050565b82818337600083830152505050565b60005b83811015612b78578082015181840152602081019050612b5d565b83811115612b87576000848401525b50505050565b60006002820490506001821680612ba557607f821691505b60208210811415612bb957612bb8612cc8565b5b50919050565b612bc882612d69565b810181811067ffffffffffffffff82111715612be757612be6612d26565b5b80604052505050565b6000612bfb82612b41565b91507fffffffffffffffffffffffffffffffffffffffffffffffffffffffffffffffff821415612c2e57612c2d612c6a565b5b600182019050919050565b6000612c4482612b41565b9150612c4f83612b41565b925082612c5f57612c5e612c99565b5b828206905092915050565b7f4e487b7100000000000000000000000000000000000000000000000000000000600052601160045260246000fd5b7f4e487b7100000000000000000000000000000000000000000000000000000000600052601260045260246000fd5b7f4e487b7100000000000000000000000000000000000000000000000000000000600052602260045260246000fd5b7f4e487b7100000000000000000000000000000000000000000000000000000000600052603260045260246000fd5b7f4e487b7100000000000000000000000000000000000000000000000000000000600052604160045260246000fd5b600080fd5b600080fd5b600080fd5b600080fd5b6000601f19601f8301169050919050565b7f7b226e616d65223a22536b656c65746f6e205374657068202d2046616e626f7960008201527f2050617373222c00000000000000000000000000000000000000000000000000602082015250565b7f4552433732313a207472616e7366657220746f206e6f6e20455243373231526560008201527f63656976657220696d706c656d656e7465720000000000000000000000000000602082015250565b7f4f776e61626c653a206e6577206f776e657220697320746865207a65726f206160008201527f6464726573730000000000000000000000000000000000000000000000000000602082015250565b7f4552433732313a207472616e736665722066726f6d20696e636f72726563742060008201527f6f776e6572000000000000000000000000000000000000000000000000000000602082015250565b7f4552433732313a20746f6b656e20616c7265616479206d696e74656400000000600082015250565b7f4552433732313a207472616e7366657220746f20746865207a65726f2061646460008201527f7265737300000000000000000000000000000000000000000000000000000000602082015250565b7f4552433732313a20617070726f766520746f2063616c6c657200000000000000600082015250565b7f4552433732313a2061646472657373207a65726f206973206e6f74206120766160008201527f6c6964206f776e65720000000000000000000000000000000000000000000000602082015250565b7f22696d616765223a220000000000000000000000000000000000000000000000600082015250565b7f227d000000000000000000000000000000000000000000000000000000000000600082015250565b7f4552433732313a20617070726f76652063616c6c6572206973206e6f7420746f60008201527f6b656e206f776e6572206e6f7220617070726f76656420666f7220616c6c0000602082015250565b7f4552433732313a206d696e7420746f20746865207a65726f2061646472657373600082015250565b7f5d2c000000000000000000000000000000000000000000000000000000000000600082015250565b7f4f776e61626c653a2063616c6c6572206973206e6f7420746865206f776e6572600082015250565b7f5b00000000000000000000000000000000000000000000000000000000000000600082015250565b7f6e657720737570706c79206c657373207468616e20616c7265616479206d696e60008201527f7465640000000000000000000000000000000000000000000000000000000000602082015250565b7f4552433732313a20696e76616c696420746f6b656e2049440000000000000000600082015250565b7f4552433732313a20617070726f76616c20746f2063757272656e74206f776e6560008201527f7200000000000000000000000000000000000000000000000000000000000000602082015250565b7f646174613a6170706c69636174696f6e2f6a736f6e3b6261736536342c000000600082015250565b7f7b2274726169745f74797065223a2246616e626f79204e756d626572222c227660008201527f616c7565223a2200000000000000000000000000000000000000000000000000602082015250565b7f226465736372697074696f6e223a224c6f636b7320696e20796f7572206d696e60008201527f74696e672073706f7420666f7220746865206578636c757369766520536b656c60208201527f65746f6e2053746570682047656e65736973204d696e692d5365726965732c2060408201527f776869636820676f6573206c697665204f63742e2031347468222c0000000000606082015250565b7f2261747472696275746573223a20000000000000000000000000000000000000600082015250565b7f6d696e74696e6720686173207265616368656420697473206d61780000000000600082015250565b7f4552433732313a2063616c6c6572206973206e6f7420746f6b656e206f776e6560008201527f72206e6f7220617070726f766564000000000000000000000000000000000000602082015250565b7f53532046616e626f7920506173733a2055524920717565727920666f72206e6f60008201527f6e6578697374656e7420746f6b656e0000000000000000000000000000000000602082015250565b7f2f00000000000000000000000000000000000000000000000000000000000000600082015250565b6133e781612ad7565b81146133f257600080fd5b50565b6133fe81612ae9565b811461340957600080fd5b50565b61341581612af5565b811461342057600080fd5b50565b61342c81612b41565b811461343757600080fd5b5056fe4142434445464748494a4b4c4d4e4f505152535455565758595a6162636465666768696a6b6c6d6e6f707172737475767778797a303132333435363738392b2fa2646970667358221220d67f6403885e11d93c3f6932fd904a2ec9dfc7b26a7fdbeb6628dfb363fafb4e64736f6c6343000806003368747470733a2f2f73656b6572666163746f72792e6d7970696e6174612e636c6f75642f697066732f516d58557432696b3350683539723872375478344c37343555423354314558376739424655594571715343507748",
  "linkReferences": {},
  "deployedLinkReferences": {}
}